conaldes@daomosda:~$ bitcoin-cli -regtest -rpcuser=olamosda -rpcpassword=cona.btc-Dao_5MoS7 getrawtransaction 670fcb9bbf
783f8763537cb8c0feb9515bb4cc80305dec46d43ae84a4695dd2a 1
{
  "txid": "670fcb9bbf783f8763537cb8c0feb9515bb4cc80305dec46d43ae84a4695dd2a",
  "hash": "25490517af25c0e3d7a19e94ea587071886cf9860a872bc16942d4eeb0751f8a",
  "version": 2,
  "size": 222,
  "vsize": 141,
  "weight": 561,
  "locktime": 0,
  "vin": [
    {
      "txid": "fdfd95c0d469e4a450c2d4ed23c53c872e7df8a1352e095b0a669280ad400179",
      "vout": 0,
      "scriptSig": {
        "asm": "",
        "hex": ""
      },
      "txinwitness": [
        "30440220706be569660288fbb9544f91c32ba2aa08a0c75e5ac464a089b8ff90b6af3a8602206116ed66246e2e2bb837eff4f7f5dcc33547e42d35543e40f5534d93d1acf0e801",
        "028f44efe3e2cc0bf1e3aff7307d47ca11497fda1880a287ed22f128a7609d4c0c"
      ],
      "sequence": 4294967293
    }
  ],
  "vout": [
    {
      "value": 0.30000000,
      "n": 0,
      "scriptPubKey": {
        "asm": "0 1d981a1443e7ef1f63b1a0530bf4518c009df5f9",
        "desc": "addr(bcrt1qrkvp59zrulh37ca35pfshaz33sqfma0ef7nmry)#6z6y0ewj",
        "hex": "00141d981a1443e7ef1f63b1a0530bf4518c009df5f9",
        "address": "bcrt1qrkvp59zrulh37ca35pfshaz33sqfma0ef7nmry",
        "type": "witness_v0_keyhash"
      }
    },
    {
      "value": 49.69997180,
      "n": 1,
      "scriptPubKey": {
        "asm": "0 5d5e33789cf53e062b804c2d5acb01a6bbfa2faf",
        "desc": "addr(bcrt1qt40rx7yu75lqv2uqfsk44jcp56al5ta0t6fegj)#mvdckn23",
        "hex": "00145d5e33789cf53e062b804c2d5acb01a6bbfa2faf",
        "address": "bcrt1qt40rx7yu75lqv2uqfsk44jcp56al5ta0t6fegj",
        "type": "witness_v0_keyhash"
      }
    }
  ],
  "hex": "02000000000101790140ad8092660a5b092e35a1f87d2e873cc523edd4c250a4e469d4c095fdfd0000000000fdffffff0280c3c901000000001600141d981a1443e7ef1f63b1a0530bf4518c009df5f97c233c28010000001600145d5e33789cf53e062b804c2d5acb01a6bbfa2faf024730440220706be569660288fbb9544f91c32ba2aa08a0c75e5ac464a089b8ff90b6af3a8602206116ed66246e2e2bb837eff4f7f5dcc33547e42d35543e40f5534d93d1acf0e80121028f44efe3e2cc0bf1e3aff7307d47ca11497fda1880a287ed22f128a7609d4c0c00000000",
  "blockhash": "0f8109d34ecc845e34e43857c5fd52389553007124e11da119efc11156525d7b",
  "confirmations": 24,
  "time": 1780515050,
  "blocktime": 1780515050
}
conaldes@daomosda:~$