conaldes@daomosda:~$ bitcoin-cli -regtest -rpcuser=olamosda -rpcpassword=cona.btc-Dao_5MoS7 getrawtransaction 367b45d1cfb6c9e43146c8a6c22284b968f1cc27b878da58bc3c0eca815e895f 1
{
  "txid": "367b45d1cfb6c9e43146c8a6c22284b968f1cc27b878da58bc3c0eca815e895f",
  "hash": "40727f72459e7dbd5f68814dd2978e74a8d3fd14ed8801810fab51d33afbbfd9",
  "version": 2,
  "size": 222,
  "vsize": 141,
  "weight": 561,
  "locktime": 0,
  "vin": [
    {
      "txid": "e4a27fb57811dccc8a004e04c36a8c666fe11df78364cf0d4a026d13448d4939",
      "vout": 0,
      "scriptSig": {
        "asm": "",
        "hex": ""
      },
      "txinwitness": [
        "304402201981d69c46baeea16b28f685a4be72ca04d5096960400b2b13a7faedbe0c4b5002202c48fcfbfc9841bb7d670245f777fef88a38326548f1480132dcafe4f05f935c01",
        "02c73dd1716e9ad2da4437ccbe5d2323a17f7035eeea5d5f5c45e5407bcab52fa1"
      ],
      "sequence": 4294967293
    }
  ],
  "vout": [
    {
      "value": 0.50000000,
      "n": 0,
      "scriptPubKey": {
        "asm": "0 e5054b4870958d835c7807e9910d7b8517892541",
        "desc": "addr(bcrt1qu5z5kjrsjkxcxhrcql5ezrtms5tcjf2prhjuy3)#kexw2sv3",
        "hex": "0014e5054b4870958d835c7807e9910d7b8517892541",
        "address": "bcrt1qu5z5kjrsjkxcxhrcql5ezrtms5tcjf2prhjuy3",
        "type": "witness_v0_keyhash"
      }
    },
    {
      "value": 49.19992160,
      "n": 1,
      "scriptPubKey": {
        "asm": "0 60b6103bf7cc9048e5b5008b4ba8963f67909cc0",
        "desc": "addr(bcrt1qvzmpqwlhejgy3ed4qz95h2yk8anep8xq3264cs)#w7j2f77l",
        "hex": "001460b6103bf7cc9048e5b5008b4ba8963f67909cc0",
        "address": "bcrt1qvzmpqwlhejgy3ed4qz95h2yk8anep8xq3264cs",
        "type": "witness_v0_keyhash"
      }
    }
  ],
  "hex": "0200000000010139498d44136d024a0dcf6483f71de16f668c6ac3044e008accdc1178b57fa2e40000000000fdffffff0280f0fa0200000000160014e5054b4870958d835c7807e9910d7b8517892541601f41250100000016001460b6103bf7cc9048e5b5008b4ba8963f67909cc00247304402201981d69c46baeea16b28f685a4be72ca04d5096960400b2b13a7faedbe0c4b5002202c48fcfbfc9841bb7d670245f777fef88a38326548f1480132dcafe4f05f935c012102c73dd1716e9ad2da4437ccbe5d2323a17f7035eeea5d5f5c45e5407bcab52fa100000000",
  "blockhash": "55dcb45e987836e30c84a385cca7c17bc9653d0ef49a4ac89ad380131ea49913",
  "confirmations": 10,
  "time": 1780763325,
  "blocktime": 1780763325
}
conaldes@daomosda:~$