conaldes@daomosda:~$ bitcoin-cli -regtest -rpcuser=olamosda -rpcpassword=cona.btc-Dao_5MoS7 getrawtransaction 4f15cff6102e2f0860bb9c2f52a5df69aa4ad4a923c75492f1abadda1037e039 1
{
  "txid": "4f15cff6102e2f0860bb9c2f52a5df69aa4ad4a923c75492f1abadda1037e039",
  "hash": "230feb418ae45f825c8a0b7fc21b3c50adb670e2384b74db544bd60e5be57a23",
  "version": 2,
  "size": 222,
  "vsize": 141,
  "weight": 561,
  "locktime": 0,
  "vin": [
    {
      "txid": "987aec52f4e4f917d7d83a0ca829988b827166fb146d1cb4f9c408cff79a6b2b",
      "vout": 0,
      "scriptSig": {
        "asm": "",
        "hex": ""
      },
      "txinwitness": [
        "3044022049124d7cb7eefd32ca84fd8f6bfcf9da161f24b7b52ed97852ec7c3820777d8d0220335587920429ae253e956ea6bb9eb49fad114206b08e98a3029e234d24decf8801",
        "028f44efe3e2cc0bf1e3aff7307d47ca11497fda1880a287ed22f128a7609d4c0c"
      ],
      "sequence": 4294967293
    }
  ],
  "vout": [
    {
      "value": 49.69997180,
      "n": 0,
      "scriptPubKey": {
        "asm": "0 aa00439788c1dae440a170f621e1ea9f102ad7c4",
        "desc": "addr(bcrt1q4gqy89ugc8dwgs9pwrmzrc02nugz447ys6z33w)#efwdvv40",
        "hex": "0014aa00439788c1dae440a170f621e1ea9f102ad7c4",
        "address": "bcrt1q4gqy89ugc8dwgs9pwrmzrc02nugz447ys6z33w",
        "type": "witness_v0_keyhash"
      }
    },
    {
      "value": 0.30000000,
      "n": 1,
      "scriptPubKey": {
        "asm": "0 e296ecdbda991c19f9466e8af28065b3bd82a1c2",
        "desc": "addr(bcrt1qu2twek76nywpn72xd6909qr9kw7c9gwzhpcwje)#29dskjsj",
        "hex": "0014e296ecdbda991c19f9466e8af28065b3bd82a1c2",
        "address": "bcrt1qu2twek76nywpn72xd6909qr9kw7c9gwzhpcwje",
        "type": "witness_v0_keyhash"
      }
    }
  ],
  "hex": "020000000001012b6b9af7cf08c4f9b41c6d14fb6671828b9829a80c3ad8d717f9e4f452ec7a980000000000fdffffff027c233c2801000000160014aa00439788c1dae440a170f621e1ea9f102ad7c480c3c90100000000160014e296ecdbda991c19f9466e8af28065b3bd82a1c202473044022049124d7cb7eefd32ca84fd8f6bfcf9da161f24b7b52ed97852ec7c3820777d8d0220335587920429ae253e956ea6bb9eb49fad114206b08e98a3029e234d24decf880121028f44efe3e2cc0bf1e3aff7307d47ca11497fda1880a287ed22f128a7609d4c0c00000000",
  "blockhash": "0e8b47a5f61a1601cf98e4f74366a07b2f29975d958f8247b9dc6c52bc8cdb4c",
  "confirmations": 17,
  "time": 1780763045,
  "blocktime": 1780763045
}
conaldes@daomosda:~$