conaldes@daomosda:~$ bitcoin-cli -regtest -rpcuser=olamosda -rpcpassword=cona.btc-Dao_5MoS7 getrawtransaction e4a27fb57811dccc8a004e04c36a8c666fe11df78364cf0d4a026d13448d4939 1
{
  "txid": "e4a27fb57811dccc8a004e04c36a8c666fe11df78364cf0d4a026d13448d4939",
  "hash": "d9839015aa701d55ffd836228e48c16d73982983647fb74556660cbdb3f13a31",
  "version": 2,
  "size": 191,
  "vsize": 110,
  "weight": 437,
  "locktime": 0,
  "vin": [
    {
      "txid": "4f15cff6102e2f0860bb9c2f52a5df69aa4ad4a923c75492f1abadda1037e039",
      "vout": 0,
      "scriptSig": {
        "asm": "",
        "hex": ""
      },
      "txinwitness": [
        "304402204438f945f80399d77faa6d132d9c3e57a1e4a6dcf53cc21f688e652c50a72d4f02204cea8571e6e7038ff9e909d5ca4667fb4b671de0761b69184d5c4bbc67cbcc3c01",
        "037da0f811c2a47a305225a9bf4878481c8564ca82bc368369c69c6956820ddf86"
      ],
      "sequence": 4294967293
    }
  ],
  "vout": [
    {
      "value": 49.69994980,
      "n": 0,
      "scriptPubKey": {
        "asm": "0 1e602d9b103dbff08bb08bda38dd85aac5d5ff45",
        "desc": "addr(bcrt1qreszmxcs8kllpzas30dr3hv94tzatl69h5urz6)#e3mhxwdy",
        "hex": "00141e602d9b103dbff08bb08bda38dd85aac5d5ff45",
        "address": "bcrt1qreszmxcs8kllpzas30dr3hv94tzatl69h5urz6",
        "type": "witness_v0_keyhash"
      }
    }
  ],
  "hex": "0200000000010139e03710daadabf19254c723a9d44aaa69dfa5522f9cbb60082f2e10f6cf154f0000000000fdffffff01e41a3c28010000001600141e602d9b103dbff08bb08bda38dd85aac5d5ff450247304402204438f945f80399d77faa6d132d9c3e57a1e4a6dcf53cc21f688e652c50a72d4f02204cea8571e6e7038ff9e909d5ca4667fb4b671de0761b69184d5c4bbc67cbcc3c0121037da0f811c2a47a305225a9bf4878481c8564ca82bc368369c69c6956820ddf8600000000",
  "blockhash": "23d1ee0f986adfa056c56f1c49203036ff5352aa1d8c7583eec0ca04a4b0853b",
  "confirmations": 11,
  "time": 1780763082,
  "blocktime": 1780763082
}
conaldes@daomosda:~$